:020000040800F2
:1000000010070020890100085D0C0008590C000849
:100010005B0C00088F020008550D0008000000006E
:10002000000000000000000000000000610C00085B
:1000300091020008000000005F0C0008630C00083B
:10004000A3010008A3010008A3010008A301000800
:10005000A3010008A3010008A3010008A3010008F0
:10006000A3010008A3010008A3010008A3010008E0
:10007000A3010008A3010008A3010008A3010008D0
:10008000A3010008A3010008A3010008A3010008C0
:10009000A3010008A3010008A3010008A3010008B0
:1000A000A3010008A3010008A3010008A3010008A0
:1000B000A3010008A3010008A3010008A301000890
:1000C000A3010008A3010008A3010008A301000880
:1000D000A3010008A3010008A3010008A301000870
:1000E000A3010008A3010008A301000800F002F822
:1000F00000F03AF80AA090E8000C82448344AAF188
:100100000107DA4501D100F02FF8AFF2090EBAE885
:100110000F0013F0010F18BFFB1A43F0010318473B
:100120008C0D0000AC0D0000103A24BF78C878C1D7
:10013000FAD8520724BF30C830C144BF04680C60ED
:10014000704700000023002400250026103A28BF35
:1001500078C1FBD8520728BF30C148BF0B60704739
:100160001FB51FBD10B510BD00F058F81146FFF7C0
:10017000F7FF00F003FE00F076F803B4FFF7F2FF9C
:1001800003BC00F07DF8000009488047094800479B
:10019000FEE7FEE7FEE7FEE7FEE7FEE7FEE7FEE737
:1001A000FEE7FEE704480549054A064B7047000094
:1001B000D10C0008ED0000081001002010070020FD
:1001C00010030020100300204FF0000200B513467A
:1001D00094469646203922BFA0E80C50A0E80C5067
:1001E000B1F12001BFF4F7AF090728BFA0E80C5018
:1001F00048BF0CC05DF804EB890028BF40F8042B11
:1002000008BF704748BF20F8022B11F0804F18BF7D
:1002100000F8012B7047704770477047754600F033
:100220002BF8AE4605006946534620F00700854688
:1002300018B020B5FFF7B6FFBDE820404FF000062C
:100240004FF000074FF000084FF0000BAC46ACE851
:10025000C009ACE8C009ACE8C009ACE8C00921F0AD
:1002600007018D46704710B50446AFF30080204665
:10027000BDE81040FFF781BF004870471000002024
:1002800001491820ABBEFEE7260002007047FEE7DA
:10029000704700002DE9FC4F5A4A04234FF0000B31
:1002A0004FF001084FF00F0E4FF00009002590426B
:1002B00008BF032300930B6833FA05F208BFBDE8BB
:1002C000FC8F08FA05F2134200F097804F68032F65
:1002D00016D9112F24D0122F26D04D4B9F4213D068
:1002E0004C4B9F4210D04C4B9F420DD04B4B9F42EA
:1002F0000AD04B4B9F4207D04A4B9F4204D020E08C
:10030000DFE807F00216191D8B6833B1012B14BF0B
:10031000426102614FF0080913E04FF0040910E058
:10032000CB6803F104090CE0CB6803F10C0908E089
:10033000D1F80C9005E0CB6803F1080901E04FF01B
:1003400000095B460646082D28BF203B28BF04361F
:1003500037680EFA03F427EA040409FA03F3234387
:100360003360CB79DB0648D5614B274E1C461B68B2
:10037000A6F57E7643F00103236023680BF00C0C96
:1003800003F001030193019CAC0856F824700EFAA7
:100390000CF327EA030A244B984208D0234B9842D7
:1003A00007D0234B9842009B08BF022302E00023A2
:1003B00000E0012303FA0CF343EA0A0346F8243071
:1003C0004F68114CFB03236854BF934313432360CE
:1003D000BB03636854BF934313436360FB02A3688A
:1003E00054BF93431343A360BB02084B1C461B68D6
:1003F00054BF23EA02021A4322600BF1040B0135B9
:1004000059E700BF00140140000401400C04014002
:100410000000111000001210000021100000221036
:10042000000031100000321000080140000C0140B3
:1004300000100140002A08BF090401617047000054
:1004400005480068704700BF1A48034900780A68E9
:1004500010440860704700BF0C01002080B5884838
:10046000016841F010010160032000F061F80F20E5
:1004700000F004F800F020F8002080BD70B50D4EAB
:10048000044630784FF47A71B1FBF0F0894909687D
:10049000B1FBF0F000F064FB01250F2C08D838B94F
:1004A0004FF0FF3021460022002500F025F874604F
:1004B000284670BD0000002082B00D48022201686D
:1004C00041F001010160016801F001010191019910
:1004D000416841F080514160406800F080500090D8
:1004E00000980448016862F31A61016002B0704725
:1004F0001810024004000140B0B5134B4FF0FF3517
:100500001B68C3F30223DC1E83F0070338BF0024FB
:10051000042B28BF042305FA03F3994305FA04F3D7
:10052000A1409A431143BDE8B04000F015BC00BFA4
:1005300005494FF6FF030A681A4060F30A22034890
:1005400010430860704700BF0CED00E00000FA05A2
:100550002DE9F843002800F0908088464849044679
:10056000086800F0070040450AD2086820F007003C
:1005700040EA08000860086800F0070040457CD1A8
:1005800020685B4B8946810711D5410703D519685F
:1005900041F4E0611960010703D5196841F4605125
:1005A0001960A1681A6822F0F00211431960C007AF
:1005B0002BD06068012804D153F8041C890309D4A6
:1005C0005BE053F8041C022802D1890102D454E0F4
:1005D000890752D519681D4621F0030108431860A8
:1005E000FFF72EFF064641F28837606829682B46E0
:1005F00001F00C01B1EB800F07D0FFF721FF801B4A
:10060000B842F2D90320BDE8F883D9F8000000F021
:10061000070040450DD9D9F8000020F0070040EA56
:100620000800C9F80000D9F8000000F007004045B4
:1006300023D12068410705D5E1681A6822F4E062F9
:1006400011431960000706D52069196821F460512B
:1006500041EAC00018601C4600F030F82168094AE1
:10066000C1F30311515CC840F349086006480068B3
:10067000FFF704FF0020BDE8F8830120BDE8F88300
:1006800000200240940E000804000020EA481849A7
:1006900000680968084AC1F30221515CC8407047EC
:1006A000E548134900680968034AC1F3C221515C57
:1006B000C840704708000020A40E000810B50C497F
:1006C0000C480A6802F00C03082B07D1C2F38343DD
:1006D00009A4E35CD20302D40C48584310BD096856
:1006E00009A2C1F34041515C5843B0FBF1F010BD89
:1006F0000410024000127A000203040506070809EC
:100700000A0B0C0D0E0F10100102000000093D0035
:100710002DE9FC41002800F0CC8004460078C44E4E
:10072000C0074AD0706800F00C00042817D0706829
:1007300000F00C00082802D17068C0030FD4606874
:1007400098B1B0F5803F06D03168B0F5A02F21D127
:1007500041F480203060306840F4803020E0306820
:1007600080032AD5606840BBA3E0306820F4803065
:100770003060306820F480203060FFF761FE05466D
:100780003068800319D5FFF75BFE411B0320642905
:10079000F6D94AE121F480303060306820F48020BE
:1007A0003060FFF74DFE05463068800305D4FFF743
:1007B00047FE401B6428F7D90AE1207880072CD532
:1007C000706810F00C0F07D0706800F00C0008285B
:1007D00009D17068C00306D43068800716D5206937
:1007E000012813D065E021699248002900F0B58006
:1007F00001210160FFF724FE05463068800705D41B
:10080000FFF71EFE401B0228F7D9E1E0606931685E
:1008100021F0F80141EAC0003060207800072ED5B1
:10082000A06978B183480121C0F88014FFF708FE61
:100830000546706A800715D4FFF702FE401B0228A8
:10084000F7D9C5E07B480021C0F88014FFF7F8FD18
:100850000546706A800712D5FFF7F2FD401B02289B
:10086000F7D9B5E074484FF4FA510068B0FBF1F0E5
:10087000019000BF0198411E00280191F9D1207814
:10088000400719D4E769002F00F0CE80706800F0AF
:100890000C00082843D1012F0BD0216A706800F4A6
:1008A00080328A4205D1616A00F47010884200F0FB
:1008B000BB800120BDE8FC81F069C0000BD4F06969
:1008C0004FF0010840F08050F061F06900F0805076
:1008D0000090009801E04FF00008584F3868C005BC
:1008E0000FD4386840F480703860FFF7A9FD0546E2
:1008F0003868C00505D4FFF7A3FD401B6428F7D96D
:1009000066E0E068C8B3012805D0316A05284BD1FC
:1009100041F004003062306A40F001004AE045498D
:10092000002088460866FFF78BFD0546022F0AD196
:1009300047463068800157D5FFF782FD411B0320F1
:100940000229F6D971E0306880016DD5FFF778FD96
:10095000411B03200229F6D967E000210160FFF75F
:100960006FFD0546306880077FF557AFFFF768FDDC
:10097000411B03200229F5D957E0306A20F001001D
:100980003062306A20F004003062FFF759FD0546FE
:1009900041F28837306A80071DD5FFF751FD411BB2
:1009A0000320B942F6D940E021F001003062306AFC
:1009B00020F004003062FFF743FD054641F288371E
:1009C000306A800707D4FFF73BFD401BB842F7D9D8
:1009D0000320BDE8FC81B8F1000F3FF453AFF0698C
:1009E00020F08050F0614DE7206AB0F5803F05D1DE
:1009F000A168726822F4003211437160616A084391
:100A0000716821F474110843706001203866FFF7A3
:100A100017FD04463068800106D4FFF711FD011B65
:100A200003200229F6D900E00020BDE8FC8100BFC8
:100A30000010024000004242080000200070004008
:100A4000F8B538B10446406A30B10020206104F1A5
:100A5000140007E001254AE06068B0F5827F03D00A
:100A600004F11C00002101600025A56294F85100EA
:100A700000284FF0000007D1204684F8505000F0C5
:100A800039F8A06A00F40050022184F8511094E86B
:100A90004E0002F482720F6803F4044327F040070B
:100AA0000F601A4406F400631A44236903F002033A
:100AB0001A44636903F001031A44A36903F400763E
:100AC0003244E66906F038063244266A06F08006AB
:100AD000324310430860042000EA13404860C869AC
:100AE00020F40060C8610120656584F85100284643
:100AF000F8BD000070B586B00026CDE90466CDE9EA
:100B00000266544C006804F52051884225D1DD4826
:100B100002AD016841F480510160016801F4805127
:100B200001910199016841F00401016000682946C2
:100B300000F0040001900320059002200390A02003
:100B4000029001982046FFF7A5FB4020CDE90366FF
:100B5000029020462946FFF79DFB06B070BD00BFFE
:100B6000411E0020B0EB116F1CBF01207047044AEA
:100B7000F023516003490B700721906011607047AA
:100B800010E000E023ED00E050B310B5044690F80B
:100B90003D0028B9002084F83C00204600F022F8EF
:100BA000242084F83D002068C16821F40051C16010
:100BB000204600F08FF82068016921F4904101611E
:100BC000416921F02A014161C16841F40051C160CD
:100BD00000202021206484F83D1084F83E1010BDD0
:100BE0000120704770B586B00026CDE90466CDE9D6
:100BF0000266184C006804F54051884227D1A1488C
:100C000002AD016841F480410160016801F4804156
:100C100001910199016841F00401016000682946D1
:100C200000F00400019003200590022003904FF48F
:100C30000070029001982046FFF72CFB4FF4806073
:100C4000CDE90366029020462946FFF723FB06B054
:100C500070BD00BF00080140FEE7FEE7FEE77047F9
:100C60007047FFF7F1BBB0B590B0002401A8142184
:100C7000CDE90B44CDE90944FFF7A6FA4FF4501033
:100C80000F904FF48030022501214FF400320E9076
:100C90000D950A910892CDE9061006A8FFF738FDD8
:100CA00018B1EFF3108072B6FEE74FF48060059044
:100CB000CDE903400F20CDE9010501A80221FFF78E
:100CC00047FC18B1EFF3108072B6FEE710B0B0BD6C
:100CD00070470000B0B50446006804F108030ECB6D
:100CE0000569194325F440552A430261C2686369C6
:100CF00041F20C65AA4319431143C1604169A269DD
:100D000021F44071114341611149884202D0FFF73B
:100D1000BDFC01E0FFF7C4FC19214843D4E90012EF
:100D20006FF063049200B0FBF2F06422B0FBF2F3C8
:100D300003FB0400322404EB0010B0FBF2F000F0DF
:100D4000F00202EB031200F00F0010448860B0BD07
:100D500000380140FEE7000010B5074C00F00F031B
:100D60002344044AB0F1FF3FC8BF8318080118703C
:100D700010BD00BF00E400E014ED00E084B0FFF718
:100D80006DFBFFF770FF3F48002201684FF40056EB
:100D900041F0100101600168002701F0100100918D
:100DA0000099016841F020010160016801F0200113
:100DB00000910099016841F004010160016801F0AF
:100DC000040100910099016841F008010160006888
:100DD0004FF4005100F00800009000982A4800F5F8
:100DE000806582462846FFF725FB504603210022F6
:100DF0004FF00308FFF71EFB4FF002090124CDE975
:100E00000279CDE900646E4628463146FFF742FA82
:100E100050463146CDE90279CDE90084FFF73AFA30
:100E20001A480A234FF482710AF51052C0E9087774
:100E3000C0E90A7308234FF40074C0E90021C0E937
:100E40000277C0E90477C0E90643FFF7F9FD18B15E
:100E5000EFF3108072B6FEE70D480C214FF4E1323B
:100E60000AF53053C0E90032C0E90277C0E90471E5
:100E7000C0E90677FFF788FE18B1EFF3108072B66D
:100E8000FEE7FEE718100240000C01407000002051
:100E9000C800002000000000000000000102030460
:100EA000060708090000000001020304D00E000834
:100EB000000000201000000028010008E00E0008DB
:100EC000100000200007000044010008000000009E
:100ED00001000000100000000024F40000000000E9
:04000005080000ED02
:00000001FF
