:020000040800F2
:1000000038070020890100080D15000809150008AF
:100010000B1500088F02000885170008000000007B
:100020000000000000000000000000003916000879
:1000300091020008000000000F1500083B160008A0
:10004000A3010008A3010008A3010008A301000800
:10005000A3010008A3010008A3010008A3010008F0
:10006000A3010008A3010008A3010008A3010008E0
:10007000A3010008A3010008A3010008A3010008D0
:10008000A3010008A3010008A3010008A3010008C0
:10009000A3010008A3010008A3010008A3010008B0
:1000A000A3010008A3010008A3010008A3010008A0
:1000B000A3010008A3010008A3010008A301000890
:1000C000A3010008A3010008A3010008A301000880
:1000D000A3010008A3010008A3010008A301000870
:1000E000A3010008A3010008A301000800F002F822
:1000F00000F03AF80AA090E8000C82448344AAF188
:100100000107DA4501D100F02FF8AFF2090EBAE885
:100110000F0013F0010F18BFFB1A43F0010318473B
:10012000F417000014180000103A24BF78C878C1F2
:10013000FAD8520724BF30C830C144BF04680C60ED
:10014000704700000023002400250026103A28BF35
:1001500078C1FBD8520728BF30C148BF0B60704739
:100160001FB51FBD10B510BD00F058F81146FFF7C0
:10017000F7FF01F01BFB00F076F803B4FFF7F2FF86
:1001800003BC00F07DF8000009488047094800479B
:10019000FEE7FEE7FEE7FEE7FEE7FEE7FEE7FEE737
:1001A000FEE7FEE704480549054A064B7047000094
:1001B000A9160008ED0000083801002038070020CB
:1001C00038030020380300204FF0000200B513462A
:1001D00094469646203922BFA0E80C50A0E80C5067
:1001E000B1F12001BFF4F7AF090728BFA0E80C5018
:1001F00048BF0CC05DF804EB890028BF40F8042B11
:1002000008BF704748BF20F8022B11F0804F18BF7D
:1002100000F8012B7047704770477047754600F033
:100220002BF8AE4605006946534620F00700854688
:1002300018B020B5FFF7B6FFBDE820404FF000062C
:100240004FF000074FF000084FF0000BAC46ACE851
:10025000C009ACE8C009ACE8C009ACE8C00921F0AD
:1002600007018D46704710B50446AFF30080204665
:10027000BDE81040FFF781BF00487047180000201C
:1002800001491820ABBEFEE7260002007047FEE7DA
:1002900070470000B0B5044600F0E6F80546904807
:1002A000611C007818BF044400F0DEF8401BA04237
:1002B000FAD3B0BD2DE9FC4F5A4A04234FF0000B8E
:1002C0004FF001084FF00F0E4FF00009002590424B
:1002D00008BF032300930B6833FA05F208BFBDE89B
:1002E000FC8F08FA05F2134200F097804F68032F45
:1002F00016D9112F24D0122F26D04D4B9F4213D048
:100300004C4B9F4210D04C4B9F420DD04B4B9F42C9
:100310000AD04B4B9F4207D04A4B9F4204D020E06B
:10032000DFE807F00216191D8B6833B1012B14BFEB
:10033000426102614FF0080913E04FF0040910E038
:10034000CB6803F104090CE0CB6803F10C0908E069
:10035000D1F80C9005E0CB6803F1080901E04FF0FB
:1003600000095B460646082D28BF203B28BF0436FF
:1003700037680EFA03F427EA040409FA03F3234367
:100380003360CB79DB0648D5654B274E1C461B688E
:10039000A6F57E7643F00103236023680BF00C0C76
:1003A00003F001030193019CAC0856F824700EFA87
:1003B0000CF327EA030A244B984208D0664B984274
:1003C00007D0934B9842009B08BF022302E0002312
:1003D00000E0012303FA0CF343EA0A0346F8243051
:1003E0004F68114CFB03236854BF934313432360AE
:1003F000BB03636854BF934313436360FB02A3686A
:1004000054BF93431343A360BB02084B1C461B68B5
:1004100054BF23EA02021A4322600BF1040B013598
:1004200059E700BF00140140000401400C040140E2
:100430000000111000001210000021100000221016
:10044000000031100000321000080140C26802EACA
:100450000103914341EA034101617047002A08BF4B
:10046000090401617047000005480068704700BF3B
:100470001B48034900780A6810440860704700BFB1
:100480003401002080B50748016841F01001016087
:10049000032000F00DFA0F2000F006F800F024F819
:1004A000002080BD0020024070B50D4E044630781B
:1004B0004FF47A71B1FBF0F00A490968B1FBF0F032
:1004C00000F046FF01250F2C08D838B94FF0FF3057
:1004D00021460022002500F0CFF97460284670BD47
:1004E000000000200800002082B00D4802220168B0
:1004F00041F001010160016801F0010101910199E0
:10050000416841F080514160406800F080500090A7
:1005100000980448016862F31A61016002B07047F4
:1005200018100240040001400B4802210022FFF78E
:1005300095BF00BF084802210122FFF78FBF00BF0F
:10054000054801210022FFF789BF00BF02480121B1
:100550000122FFF783BF00BF000C0140B0B50C467D
:100560000546FFF7E1FF072000F092F8204600F073
:100570004DF9022000F04EF840F00201022000F098
:1005800049F90B202946052200F058F912202021B4
:1005900000F040F9012000F01AF9022000F026F9DD
:1005A000BDE8B040FFF7C6BF80B5FFF7BDFFFF2035
:1005B00000F06EF80120002100F02CF9002000F07E
:1005C00025F9082000F0F5F8052000F0EDF80420EA
:1005D000002100F01FF9BDE88040FFF7ABBF00002D
:1005E00010B50446072000F015F841060DD510EAB5
:1005F000440F0AD00720402100F00CF904484FF4C2
:100600000051FFF723FF012010BD002010BD00BFE7
:10061000001001401CB58DF80700FFF791FF954CC5
:100620000DF1070120460122642300F0F7FC0DF1D3
:10063000060120460122642300F054FCFFF786FFE8
:100640009DF806001CBD00BFBCB50446FFF778FF4F
:10065000884D61208DF807000DF107012846012221
:100660004FF47A7300F0DAFC2846214620224FF43A
:100670007A7300F037FCFFF769FF0120FFF70AFEED
:10068000E2208DF80700E22000F07EF8BCBD00BF3C
:10069000FF2807D017286FD007286CD1072000212A
:1006A00000F0B8B8F0B587B0354C00200821A0475D
:1006B00001203F21A04702200321A047032003215E
:1006C000A04704200321A04705200221A0470620BF
:1006D0000E21A04707200021A04708200021A047A5
:1006E00009200021A047274D6FF018064FF0E7378B
:1006F00005A90A2005228DF818600597A8476FF014
:100700003D008DF810004FF0C230039003A90B207C
:100710000522A8470C20C321A0470D20C421A047D3
:100720000E20C521A0470F20C621A04701A91020F7
:1007300005228DF808600197A84711200021A047E5
:1007400012200021A04713200021A04714200021DF
:10075000A04715200021A04716200021A047172000
:100760001121A0471C200021A0471D200021A047E7
:1007700007B0BDE8F04070471720112100F04AB8DB
:10078000150800083D080008E0B58DF80700FFF7E0
:10079000D7FE38480DF107010122642300F03EFC2A
:1007A000FFF7D4FE8CBD00BF0238C1B2032000F0B9
:1007B00031B810B504460620FFF72CFF00F0F70013
:1007C00040EA04010620BDE8104000F023B810B54F
:1007D00004460020FFF71EFF04F0010100F0FE00B8
:1007E00001440020BDE8104000F014B810B50446E4
:1007F0000020FFF70FFF00F0FD01022C08BF40F0C2
:1008000002010020BDE8104000F004B801460520B8
:10081000AFF30080E0B540F020008DF807108DF8B0
:100820000600FFF78DFE13480DF1060102224FF47A
:100830007A7300F0F3FBFFF789FE8CBD7CB540F0C6
:10084000200014460D468DF80700FFF779FE094E8B
:100850000DF1070130460122642300F0DFFB304632
:10086000294622464FF47A7300F0D8FBFFF76EFE5C
:100870007CBD00BFDC000020B0B5134B4FF0FF354E
:100880001B68C3F30223DC1E83F0070338BF002478
:10089000042B28BF042305FA03F3994305FA04F354
:1008A000A1409A431143BDE8B04000F06DBF00BFC6
:1008B00005494FF6FF030A681A4060F30A2203480D
:1008C00010430860704700BF0CED00E00000FA051F
:1008D0002DE9F843002800F09080884648490446F6
:1008E000086800F0070040450AD2086820F00700B9
:1008F00040EA08000860086800F0070040457CD125
:1009000020685A4B8946810711D5410703D51968DC
:1009100041F4E0611960010703D5196841F46051A1
:100920001960A1681A6822F0F00211431960C0072B
:100930002BD06068012804D153F8041C890309D422
:100940005BE053F8041C022802D1890102D454E070
:10095000890752D519681D4621F003010843186024
:10096000FFF782FD064641F28837606829682B460A
:1009700001F00C01B1EB800F07D0FFF775FD801B74
:10098000B842F2D90320BDE8F883D9F8000000F09E
:10099000070040450DD9D9F8000020F0070040EAD3
:1009A0000800C9F80000D9F8000000F00700404531
:1009B00023D12068410705D5E1681A6822F4E06276
:1009C00011431960000706D52069196821F46051A8
:1009D00041EAC00018601C4600F02EF82168094A60
:1009E000C1F30311515CC840F24908600648006831
:1009F000FFF75AFD0020BDE8F8830120BDE8F88329
:100A000000200240FC18000804000020E9481749B3
:100A100000680968074AC1F30221515CC840704769
:100A2000E448124900680968024AC1F3C221515CD6
:100A3000C84070470C19000810B50C490C480A68EA
:100A400002F00C03082B07D1C2F3834309A4E35C33
:100A5000D20302D40C48584310BD096809A2C1F35F
:100A60004041515C5843B0FBF1F010BD041002400E
:100A700000127A0002030405060708090A0B0C0D90
:100A80000E0F10100102000000093D002DE9FC418D
:100A9000002800F0CC8004460078C44EC0074AD03D
:100AA000706800F00C00042817D0706800F00C008B
:100AB000082802D17068C0030FD4606898B1B0F5FF
:100AC000803F06D03168B0F5A02F21D141F48020BD
:100AD0003060306840F4803020E0306880032AD5F0
:100AE000606840BBA3E0306820F48030306030683C
:100AF00020F480203060FFF7B7FC054630688003A3
:100B000019D5FFF7B1FC411B03206429F6D94AE14E
:100B100021F480303060306820F480203060FFF7AE
:100B2000A3FC05463068800305D4FFF79DFC401BFD
:100B30006428F7D90AE1207880072CD5706810F076
:100B40000C0F07D0706800F00C00082809D17068FD
:100B5000C00306D43068800716D52069012813D059
:100B600065E021699248002900F0B580012101600B
:100B7000FFF77AFC05463068800705D4FFF774FC60
:100B8000401B0228F7D9E1E06069316821F0F801E3
:100B900041EAC0003060207800072ED5A06978B106
:100BA00083480121C0F88014FFF75EFC0546706A97
:100BB000800715D4FFF758FC401B0228F7D9C5E081
:100BC0007B480021C0F88014FFF74EFC0546706A90
:100BD000800712D5FFF748FC401B0228F7D9B5E083
:100BE00074484FF4FA510068B0FBF1F0019000BF77
:100BF0000198411E00280191F9D12078400719D4AD
:100C0000E769002F00F0CE80706800F00C00082823
:100C100043D1012F0BD0216A706800F480328A42E0
:100C200005D1616A00F47010884200F0BB80012099
:100C3000BDE8FC81F069C0000BD4F0694FF00108F9
:100C400040F08050F061F06900F080500090009812
:100C500001E04FF00008584F3868C0050FD43868DD
:100C600040F480703860FFF7FFFB05463868C00528
:100C700005D4FFF7F9FB401B6428F7D966E0E0686C
:100C8000C8B3012805D0316A05284BD141F00400D2
:100C90003062306A40F001004AE045490020884651
:100CA0000866FFF7E1FB0546022F0AD14746306888
:100CB000800157D5FFF7D8FB411B03200229F6D945
:100CC00071E0306880016DD5FFF7CEFB411B03203A
:100CD0000229F6D967E000210160FFF7C5FB054650
:100CE000306880077FF557AFFFF7BEFB411B03203D
:100CF0000229F5D957E0306A20F001003062306AED
:100D000020F004003062FFF7AFFB054641F2883760
:100D1000306A80071DD5FFF7A7FB411B0320B942AE
:100D2000F6D940E021F001003062306A20F0040082
:100D30003062FFF799FB054641F28837306A800739
:100D400007D4FFF791FB401BB842F7D90320BDE859
:100D5000FC81B8F1000F3FF453AFF06920F08050F0
:100D6000F0614DE7206AB0F5803F05D1A168726857
:100D700022F4003211437160616A0843716821F402
:100D800074110843706001203866FFF76DFB04465C
:100D90003068800106D4FFF767FB011B032002299E
:100DA000F6D900E00020BDE8FC8100BF0010024041
:100DB000000042420800002000700040F8B538B141
:100DC0000446406A30B10020206104F1140007E0BD
:100DD00001254AE06068B0F5827F03D004F11C0071
:100DE000002101600025A56294F8510000284FF011
:100DF000000007D1204684F8505000F039F8A06A6E
:100E000000F40050022184F8511094E84E0002F4DE
:100E100082720F6803F4044327F040070F601A44FE
:100E200006F400631A44236903F002031A44636959
:100E300003F001031A44A36903F400763244E6691F
:100E400006F038063244266A06F080063243104324
:100E50000860042000EA13404860C86920F400607C
:100E6000C8610120656584F851002846F8BD00007E
:100E700070B586B00026CDE90466CDE90266174C50
:100E8000006804F52051884225D1154802AD01685B
:100E900041F480510160016801F480510191019990
:100EA000016841F0040101600068294600F0040077
:100EB00001900320059002200390A0200290019849
:100EC0002046FFF7F7F94020CDE90366029020465F
:100ED0002946FFF7EFF906B070BD00BF00080140DA
:100EE000181002402DE9F843044640681D46174695
:100EF0000E46B0F5827F03D1A068002800F0808004
:100F000094F85000012804BF0220BDE8F8834FF098
:100F1000010984F85090FFF7A7FA804694F8510031
:100F2000012865D10120002E63D0002F61D004205C
:100F300084F8510000206065E787A787A663A08634
:100F40002063C4E91000E086A1682068B1F5004F75
:100F500007D1016821F040010160016821F480415E
:100F600001600168490603D4016841F04001016055
:100F7000E0686E1C60B3E08F68B320688168C907C1
:100F800008D1FFF771FA002EF5D0A0EB0800A842B7
:100F9000F1D341E0A16BC06821F8020BA163E08F9F
:100FA0000138E087E7E720688168C90707D1FFF7C4
:100FB0005BFA6EB1A0EB0800A84209D32CE0007BDD
:100FC000A16B0870A06B0130A063E08F0138E0874F
:100FD000E08F0028E7D120462946424600F098FAE3
:100FE00008B120206065606D002818BF012000E076
:100FF0000220002184F8501084F85190BDE8F88355
:10100000042084F851002046314632463B46009584
:1010100000F0B6F8BDE8F8830320EAE72DE9F843CD
:10102000044690F85000012804BF0220BDE8F88370
:101030004FF001091D4616460F4684F85090FFF701
:1010400013FA804694F85100012855D10120002F51
:1010500000F08F80002E00F08C80032084F8510077
:1010600000206065E686A6862763A087A063C4E9A2
:101070001000E087A1682068B1F5004F07D1016832
:1010800021F040010160016841F480410160016884
:10109000490603D4016841F0400101606168731E94
:1010A000E268B1FA81F1B3FA83F349095B091943A4
:1010B000B2F5006F22D131B137F8021BC16027634E
:1010C000E08E0138E0866E1CE08ED0B32068816827
:1010D000890708D4FFF7C8F9002EF5D0A0EB080067
:1010E000A842F1D344E0216B31F8022BC2602163A6
:1010F000E08E0138E086E7E702203AE039B139783E
:101100000173206B01302063E08E0138E0866E1C95
:10111000E08EB0B120688168890708D4FFF7A4F990
:10112000002EF5D0A0EB0800A842F1D320E0216BFF
:1011300009780173206B01302063E08E0138E0866E
:10114000E6E720462946424600F00AFA08B1202088
:101150006065A06838B9002000902068C1680091DF
:10116000806800900098606D002818BF012000E0A2
:101170000320002184F8501084F85190BDE8F883D2
:101180002DE9F843044690F85000012804BF0220DE
:10119000BDE8F88301201E4615460F4684F850002E
:1011A000FFF762F994F851108146012969D10120B5
:1011B000002F00F0AF80002D00F0AC80002E00F07A
:1011C000A98094F8510004281CBF052084F8510020
:1011D00000206065E687E686A563A6872763C4E9E5
:1011E0001000A68620680168490603D4016841F012
:1011F000400101606168731EE268B1FA81F1B3FADF
:1012000083F3DDF8208049095B091943B2F5006FCB
:1012100045D131B137F8021BC1602763E08E013838
:10122000E086012608F10105E08E10B9E08F002864
:1012300078D02068816889070CD5E18E012E09D10C
:1012400041B1216B002631F8022BC2602163E18E8F
:101250000139E1868168C9070AD0E18F41B1A16BEC
:10126000C068012621F8020BA163E08F0138E087F6
:10127000FFF7FAF8002DD7D0A0EB09004045D3D3F3
:1012800047E06068B0F5827F07D10220042941D190
:10129000A16800293FF48BAF3CE002203AE039B16D
:1012A00039780173206B01302063E08E0138E086CD
:1012B000012608F10105E08E08B9E08F90B320689F
:1012C000816889070ED5E18E012E0BD151B1216BBA
:1012D000002609780173216B206801312163E18EBA
:1012E0000139E1868168C9070BD0E18F49B1A16B53
:1012F000C06801260870A06B0130A063E08F013840
:10130000E087FFF7B1F8002DD5D0A0EB09004045EC
:10131000D1D30320002184F85010012184F851100A
:10132000BDE8F883204641464A4600F019F918B155
:10133000202060650120EDE7A16800200029E9D1A7
:1013400000902168CA680092896800910099E1E7DD
:10135000411E0020B0EB116F1CBF01207047044AF2
:10136000F023516003490B700721906011607047B2
:1013700010E000E023ED00E050B310B5044690F813
:101380003D0028B9002084F83C00204600F022F8F7
:10139000242084F83D002068C16821F40051C16018
:1013A000204600F083F92068016921F49041016131
:1013B000416921F02A014161C16841F40051C160D5
:1013C00000202021206484F83D1084F83E1010BDD8
:1013D0000120704770B586B00026CDE90466CDE9DE
:1013E0000266184C006804F54051884227D116481F
:1013F00002AD016841F480410160016801F480415F
:1014000001910199016841F00401016000682946D9
:1014100000F00400019003200590022003904FF497
:101420000070029001982046FEF744FF4FF4806060
:10143000CDE90366029020462946FEF73BFF06B041
:1014400070BD00BF00080140181002402DE9F047B0
:10145000044690F83D0020280AD10D4601200029BD
:1014600050D01646002A4DD094F83C00012802D1F5
:101470000220BDE8F0874FF0000A0120C4F840A028
:1014800084F83C002120994684F83D00FEF7ECFFEB
:10149000E684A6848046A068B0F5805F06D12769FF
:1014A0000026002F0CBF2E462F4601E02F460026B7
:1014B00084F83CA0E08CB8B12046802142464B46DF
:1014C00000F034F9B8B927B117F8010B216848606A
:1014D00006E036F8021B20686FF35F2141600027A9
:1014E000E08C0138E084E5E72046402142464B4647
:1014F00000F01CF910B10320BDE8F087202084F82B
:101500003D000020BDE8F087FEE7FEE7FEE77047FC
:10151000B0B50446406813460A46B0F5827F11D143
:10152000A068B0F5004F02D0B0F5806F0AD12168F5
:10153000B0F5806F0D6825F040050D6002D12046A2
:10154000012101E02046802100F01CF800280FBF97
:101550000020606D40F02000606518BF0320B0BD22
:1015600010B513460A468021044600F00BF8002807
:101570000FBF0020606D40F02000606518BF0320A1
:1015800010BD00002DE9FC411E4617460D46804661
:10159000FEF76AFF301AC419FEF766FF06462548B3
:1015A00001370068C0F3CB3060430190D8F80000E9
:1015B00081682940A9420FD1002FF9D0FEF754FFCE
:1015C000801BA0420BD2019801990028A1F10101D2
:1015D000019108BF0446E9E70020BDE8FC81D8E995
:1015E00000014268B1F5827F22F0E00242600BD137
:1015F000D8F80810B1F5004F02D0B1F5806F03D1D3
:10160000016821F040010160D8F82810B1F5005FB1
:1016100007D1016821F400510160016841F40051D3
:101620000160002088F85000012088F85100032054
:10163000BDE8FC81080000207047FEF719BFB0B577
:1016400090B0002401A81421CDE90B44CDE9094450
:10165000FEF7BAFD4FF450100F904FF48030022582
:1016600001214FF400320E900D950A910892CDE9B8
:10167000061006A8FFF70AFA18B1EFF3108072B649
:10168000FEE74FF480600590CDE903400F20CDE9DF
:10169000010501A80221FFF71BF918B1EFF3108033
:1016A00072B6FEE710B0B0BD70470000B0B504469A
:1016B000006804F108030ECB0569194325F4405571
:1016C0002A430261C268636941F20C65AA43194367
:1016D0001143C1604169A26921F440711143416124
:1016E0001149884202D0FFF791F901E0FFF798F91C
:1016F00019214843D4E900126FF063049200B0FB53
:10170000F2F06422B0FBF2F303FB0400322404EB9A
:101710000010B0FBF2F000F0F00202EB031200F058
:101720000F0010448860B0BD003801402DE9F04141
:101730001D4690460F4604465E1C206801683940ED
:10174000B9421CD0002EF8D035B1FEF78DFEA0EBCB
:101750000800A842F1D92068C16821F4D071C160A5
:10176000416921F0010141612020002184F83D0000
:1017700084F83C1084F83E000320BDE8F08100208E
:10178000BDE8F081FEE7000010B5074C00F00F0344
:101790002344044AB0F1FF3FC8BF83180801187002
:1017A00010BD00BF00E400E014ED00E084B0FEF7DF
:1017B00069FEFFF744FF4C48002201684FF40056D1
:1017C00041F0100101600168002701F01001009153
:1017D0000099016841F020010160016801F02001D9
:1017E00000910099016841F004010160016801F075
:1017F000040100910099016841F00801016000684E
:101800004FF4005100F0080000900098374800F5B0
:10181000806582462846FEF721FE504603210022BD
:101820004FF00308FEF71AFE4FF002090124CDE93C
:101830000279CDE900646E4628463146FEF73AFD4E
:1018400050463146CDE90279CDE90084FEF732FDFC
:1018500027480A234FF482710AF51052C0E908772D
:10186000C0E90A7308234FF40074C0E90021C0E9FD
:101870000277C0E90477C0E90643FFF79FFA18B181
:10188000EFF3108072B6FEE71A4C0AF5305120468D
:1018900040F8201F0C214FF4E132C0E90127C0E9D4
:1018A0000377C0E90517C761FFF766FD18B1EFF3CD
:1018B000108072B6FEE7FEF777FE0F485A21FEF75A
:1018C0004DFE04F120050120FEF78AFE0128FAD121
:1018D0002046FEF7B9FE2846214620224FF47A73AF
:1018E000FFF7B4FDEFE700BF18100240000C014005
:1018F000DC000020780000200C0000200000000028
:1019000000000000010203040607080900000000AF
:10191000010203043819000800000020180000002C
:1019200028010008501900081800002020070000B6
:101930004401000800000000010000001000000049
:101940000024F400415355525400000000000000F0
:04000005080000ED02
:00000001FF
