:020000040800F2
:100000003807002089010008411400083D14000849
:100010003F1400088F02000861160008000000006D
:100020000000000000000000000000006D15000846
:100030009102000800000000431400086F1500083A
:10004000A3010008A3010008A3010008A301000800
:10005000A3010008A3010008A3010008A3010008F0
:10006000A3010008A3010008A3010008A3010008E0
:10007000A3010008A3010008A3010008A3010008D0
:10008000A3010008A3010008A3010008A3010008C0
:10009000A3010008A3010008A3010008A3010008B0
:1000A000A3010008A3010008A3010008A3010008A0
:1000B000A3010008A3010008A3010008A301000890
:1000C000A3010008A3010008A3010008A301000880
:1000D000A3010008A3010008A3010008A301000870
:1000E000A3010008A3010008A301000800F002F822
:1000F00000F03AF80AA090E8000C82448344AAF188
:100100000107DA4501D100F02FF8AFF2090EBAE885
:100110000F0013F0010F18BFFB1A43F0010318473B
:10012000B8160000D8160000103A24BF78C878C16D
:10013000FAD8520724BF30C830C144BF04680C60ED
:10014000704700000023002400250026103A28BF35
:1001500078C1FBD8520728BF30C148BF0B60704739
:100160001FB51FBD10B510BD00F058F81146FFF7C0
:10017000F7FF01F089FA00F076F803B4FFF7F2FF19
:1001800003BC00F07DF8000009488047094800479B
:10019000FEE7FEE7FEE7FEE7FEE7FEE7FEE7FEE737
:1001A000FEE7FEE704480549054A064B7047000094
:1001B000DD150008ED000008380100203807002098
:1001C00038030020380300204FF0000200B513462A
:1001D00094469646203922BFA0E80C50A0E80C5067
:1001E000B1F12001BFF4F7AF090728BFA0E80C5018
:1001F00048BF0CC05DF804EB890028BF40F8042B11
:1002000008BF704748BF20F8022B11F0804F18BF7D
:1002100000F8012B7047704770477047754600F033
:100220002BF8AE4605006946534620F00700854688
:1002300018B020B5FFF7B6FFBDE820404FF000062C
:100240004FF000074FF000084FF0000BAC46ACE851
:10025000C009ACE8C009ACE8C009ACE8C00921F0AD
:1002600007018D46704710B50446AFF30080204665
:10027000BDE81040FFF781BF0048704738000020FC
:1002800001491820ABBEFEE7260002007047FEE7DA
:1002900070470000B0B5044600F0E8F80546914804
:1002A000611C007818BF044400F0E0F8401BA04235
:1002B000FAD3B0BD2DE9FC4F5A4A04234FF0000B8E
:1002C0004FF001084FF00F0E4FF00009002590424B
:1002D00008BF032300930B6833FA05F208BFBDE89B
:1002E000FC8F08FA05F2134200F097804F68032F45
:1002F00016D9112F24D0122F26D04D4B9F4213D048
:100300004C4B9F4210D04C4B9F420DD04B4B9F42C9
:100310000AD04B4B9F4207D04A4B9F4204D020E06B
:10032000DFE807F00216191D8B6833B1012B14BFEB
:10033000426102614FF0080913E04FF0040910E038
:10034000CB6803F104090CE0CB6803F10C0908E069
:10035000D1F80C9005E0CB6803F1080901E04FF0FB
:1003600000095B460646082D28BF203B28BF0436FF
:1003700037680EFA03F427EA040409FA03F3234367
:100380003360CB79DB0648D5664B274E1C461B688D
:10039000A6F57E7643F00103236023680BF00C0C76
:1003A00003F001030193019CAC0856F824700EFA87
:1003B0000CF327EA030A244B984208D0674B984273
:1003C00007D0224B9842009B08BF022302E0002383
:1003D00000E0012303FA0CF343EA0A0346F8243051
:1003E0004F68114CFB03236854BF934313432360AE
:1003F000BB03636854BF934313436360FB02A3686A
:1004000054BF93431343A360BB02084B1C461B68B5
:1004100054BF23EA02021A4322600BF1040B013598
:1004200059E700BF00140140000401400C040140E2
:100430000000111000001210000021100000221016
:10044000000031100000321000080140001001408F
:10045000C26802EA0103914341EA03410161704726
:10046000002A08BF090401617047000005480068C0
:10047000704700BF1B48034900780A6810440860B1
:10048000704700BF3401002080B50748016841F083
:1004900010010160032000F005FA0F2000F006F8BB
:1004A00000F024F8002080BD0020024070B50D4E01
:1004B000044630784FF47A71B1FBF0F00A490968CC
:1004C000B1FBF0F000F03EFF01250F2C08D838B941
:1004D0004FF0FF3021460022002500F0C7F974607C
:1004E000284670BD280000203000002082B00D4852
:1004F0000222016841F001010160016801F001017F
:1005000001910199416841F080514160406800F0DB
:100510008050009000980448016862F31A610160FD
:1005200002B0704718100240040001400B4802213D
:100530000022FFF795BF00BF084802210122FFF704
:100540008FBF00BF054801210022FFF789BF00BF10
:10055000024801210122FFF783BF00BF000C0140C8
:10056000B0B50C460546FFF7E1FF204600F006F95E
:10057000062000F007F910202946052200F058F95E
:10058000002000F0DCF8022000F0E8F8BDE8B04000
:10059000FFF7D2BF80B5FFF7C9FFFF2000F030F8AA
:1005A0000120002100F030F9002000F0E7F80820D9
:1005B00000F0B7F8052000F0AFF80420002100F0AB
:1005C00023F9BDE88040FFF7B7BF00001CB58DF8E8
:1005D0000700FFF7B7FFA44C0DF1070120460122E9
:1005E000642300F015FD0DF106012046012264236D
:1005F00000F072FCFFF7ACFF9DF806001CBD00BFC9
:10060000FF2807D017286FD007286CD107200021BA
:1006100000F0FAB8F0B587B0354C00200821A047AB
:1006200001203F21A04702200321A04703200321EE
:10063000A04704200321A04705200221A04706204F
:100640000E21A04707200021A04708200021A04735
:1006500009200021A047274D6FF018064FF0E7371B
:1006600005A90A2005228DF818600597A8476FF0A4
:100670003D008DF810004FF0C230039003A90B200D
:100680000522A8470C20C321A0470D20C421A04764
:100690000E20C521A0470F20C621A04701A9102088
:1006A00005228DF808600197A84711200021A04776
:1006B00012200021A04713200021A0471420002170
:1006C000A04715200021A04716200021A047172091
:1006D0001121A0471C200021A0471D200021A04778
:1006E00007B0BDE8F04070471720112100F08CB82A
:1006F0000908000831080008E0B58DF80700FFF789
:1007000021FF59480DF107010122642300F080FC0C
:10071000FFF71EFF8CBD00BF0238C1B2032000F0FE
:1007200073B810B504460620FFF750FF00F0F7003D
:1007300040EA04010620BDE8104000F065B810B59D
:1007400004460020FFF742FF04F0010100F0FE0024
:1007500001440020BDE8104000F056B810B5044632
:100760000020FFF733FF00F0FD01022C08BF40F02E
:1007700002010020BDE8104000F046B80146052007
:1007800000F042B810B504460620FFF71FFF00F046
:10079000F90040EA04010620BDE8104000F034B83A
:1007A000BCB50446A0208DF80700FFF7CBFE2E4D08
:1007B0000DF10701284601224FF47A7300F028FC5E
:1007C0002846214620224FF47A7300F021FCFFF7DF
:1007D000BFFE0120FFF75EFD1720FFF7F7FE00F0D8
:1007E000180010280DD1E1208DF80700E120FFF757
:1007F00083FF1720FFF704FF02484FF40051FFF773
:1008000027FEBCBD00100140E0B540F020008DF88F
:1008100007108DF80600FFF795FE13480DF106014D
:1008200002224FF47A7300F0F3FBFFF791FE8CBDC8
:100830007CB540F0200014460D468DF80700FFF708
:1008400081FE094E0DF1070130460122642300F0BC
:10085000DFFB3046294622464FF47A7300F0D8FB7E
:10086000FFF776FE7CBD00BF98000020B0B5134BAB
:100870004FF0FF351B68C3F30223DC1E83F0070330
:1008800038BF0024042B28BF042305FA03F399433F
:1008900005FA04F3A1409A431143BDE8B04000F0CB
:1008A000E1BE00BF05494FF6FF030A681A4060F336
:1008B0000A22034810430860704700BF0CED00E0B7
:1008C0000000FA052DE9F843002800F090808846E2
:1008D00048490446086800F0070040450AD2086805
:1008E00020F0070040EA08000860086800F00700F0
:1008F00040457CD120685A4B8946810711D5410774
:1009000003D5196841F4E0611960010703D519683E
:1009100041F460511960A1681A6822F0F002114395
:100920001960C0072BD06068012804D153F8041C5B
:10093000890309D45BE053F8041C022802D1890121
:1009400002D454E0890752D519681D4621F00301ED
:1009500008431860FFF78AFD064641F28837606851
:1009600029682B4601F00C01B1EB800F07D0FFF78F
:100970007DFD801BB842F2D90320BDE8F883D9F889
:10098000000000F0070040450DD9D9F8000020F024
:10099000070040EA0800C9F80000D9F8000000F09C
:1009A0000700404523D12068410705D5E1681A6852
:1009B00022F4E06211431960000706D52069196826
:1009C00021F4605141EAC00018601C4600F02EF886
:1009D0002168094AC1F30311515CC840F24908601B
:1009E00006480068FFF762FD0020BDE8F88301209B
:1009F000BDE8F88300200240C01700082C0000204A
:100A0000E948174900680968074AC1F30221515CA7
:100A1000C8407047E448124900680968024AC1F3B7
:100A2000C221515CC8407047D017000810B50C496E
:100A30000C480A6802F00C03082B07D1C2F3834369
:100A400009A4E35CD20302D40C48584310BD0968E2
:100A500009A2C1F34041515C5843B0FBF1F010BD15
:100A60000410024000127A00020304050607080978
:100A70000A0B0C0D0E0F10100102000000093D00C2
:100A80002DE9FC41002800F0CC8004460078C44EDB
:100A9000C0074AD0706800F00C00042817D07068B6
:100AA00000F00C00082802D17068C0030FD4606801
:100AB00098B1B0F5803F06D03168B0F5A02F21D1B4
:100AC00041F480203060306840F4803020E03068AD
:100AD00080032AD5606840BBA3E0306820F48030F2
:100AE0003060306820F480203060FFF7BFFC05469E
:100AF0003068800319D5FFF7B9FC411B0320642936
:100B0000F6D94AE121F480303060306820F480204A
:100B10003060FFF7ABFC05463068800305D4FFF773
:100B2000A5FC401B6428F7D90AE1207880072CD562
:100B3000706810F00C0F07D0706800F00C000828E7
:100B400009D17068C00306D43068800716D52069C3
:100B5000012813D065E021699248002900F0B58092
:100B600001210160FFF782FC05463068800705D44B
:100B7000FFF77CFC401B0228F7D9E1E0606931688F
:100B800021F0F80141EAC0003060207800072ED53E
:100B9000A06978B183480121C0F88014FFF766FC92
:100BA0000546706A800715D4FFF760FC401B0228D9
:100BB000F7D9C5E07B480021C0F88014FFF756FC48
:100BC0000546706A800712D5FFF750FC401B0228CB
:100BD000F7D9B5E074484FF4FA510068B0FBF1F072
:100BE000019000BF0198411E00280191F9D12078A1
:100BF000400719D4E769002F00F0CE80706800F03C
:100C00000C00082843D1012F0BD0216A706800F432
:100C100080328A4205D1616A00F47010884200F087
:100C2000BB800120BDE8FC81F069C0000BD4F069F5
:100C30004FF0010840F08050F061F06900F0805002
:100C40000090009801E04FF00008584F3868C00548
:100C50000FD4386840F480703860FFF707FC054611
:100C60003868C00505D4FFF701FC401B6428F7D99C
:100C700066E0E068C8B3012805D0316A05284BD189
:100C800041F004003062306A40F001004AE045491A
:100C9000002088460866FFF7E9FB0546022F0AD1C7
:100CA00047463068800157D5FFF7E0FB411B032022
:100CB0000229F6D971E0306880016DD5FFF7D6FBC7
:100CC000411B03200229F6D967E000210160FFF7EC
:100CD000CDFB0546306880077FF557AFFFF7C6FBB1
:100CE000411B03200229F5D957E0306A20F00100AA
:100CF0003062306A20F004003062FFF7B7FB05462F
:100D000041F28837306A80071DD5FFF7AFFB411BE2
:100D10000320B942F6D940E021F001003062306A88
:100D200020F004003062FFF7A1FB054641F288374E
:100D3000306A800707D4FFF799FB401BB842F7D908
:100D40000320BDE8FC81B8F1000F3FF453AFF06918
:100D500020F08050F0614DE7206AB0F5803F05D16A
:100D6000A168726822F4003211437160616A08431D
:100D7000716821F474110843706001203866FFF730
:100D800075FB04463068800106D4FFF76FFB011B3A
:100D900003200229F6D900E00020BDE8FC8100BF55
:100DA000001002400000424230000020007000406D
:100DB000F8B538B10446406A30B10020206104F132
:100DC000140007E001254AE06068B0F5827F03D097
:100DD00004F11C00002101600025A56294F8510077
:100DE00000284FF0000007D1204684F8505000F052
:100DF00039F8A06A00F40050022184F8511094E8F8
:100E00004E0002F482720F6803F4044327F0400797
:100E10000F601A4406F400631A44236903F00203C6
:100E20001A44636903F001031A44A36903F40076CA
:100E30003244E66906F038063244266A06F0800637
:100E4000324310430860042000EA13404860C86938
:100E500020F40060C8610120656584F851002846CF
:100E6000F8BD000070B586B00026CDE90466CDE976
:100E70000266174C006804F52051884225D11548B8
:100E800002AD016841F480510160016801F48051B4
:100E900001910199016841F004010160006829464F
:100EA00000F0040001900320059002200390A02090
:100EB000029001982046FFF7FDF94020CDE9036636
:100EC000029020462946FFF7F5F906B070BD00BF35
:100ED00000080140181002402DE9F843044640681C
:100EE0001D4617460E46B0F5827F03D1A068002844
:100EF00000F0808094F85000012804BF0220BDE873
:100F0000F8834FF0010984F85090FFF7AFFA80465C
:100F100094F85100012865D10120002E63D0002FE4
:100F200061D0042084F8510000206065E787A7871E
:100F3000A663A0862063C4E91000E086A16820684B
:100F4000B1F5004F07D1016821F04001016001684F
:100F500021F4804101600168490603D4016841F031
:100F600040010160E0686E1C60B3E08F68B32068E8
:100F70008168C90708D1FFF779FA002EF5D0A0EBF8
:100F80000800A842F1D341E0A16BC06821F8020B30
:100F9000A163E08F0138E087E7E720688168C9072F
:100FA00007D1FFF763FA6EB1A0EB0800A84209D39E
:100FB0002CE0007BA16B0870A06B0130A063E08F78
:100FC0000138E087E08F0028E7D1204629464246D5
:100FD00000F038FA08B120206065606D002818BF65
:100FE000012000E00220002184F8501084F8519084
:100FF000BDE8F883042084F851002046314632468B
:101000003B46009500F0B6F8BDE8F8830320EAE718
:101010002DE9F843044690F85000012804BF02204F
:10102000BDE8F8834FF001091D4616460F4684F8C7
:101030005090FFF71BFA804694F85100012855D1D3
:101040000120002F00F08F80002E00F08C80032004
:1010500084F8510000206065E686A6862763A08795
:10106000A063C4E91000E087A1682068B1F5004FD3
:1010700007D1016821F040010160016841F480411D
:1010800001600168490603D4016841F04001016034
:101090006168731EE268B1FA81F1B3FA83F349091A
:1010A0005B091943B2F5006F22D131B137F8021B49
:1010B000C1602763E08E0138E0866E1CE08ED0B3FD
:1010C00020688168890708D4FFF7D0F9002EF5D091
:1010D000A0EB0800A842F1D344E0216B31F8022BC9
:1010E000C2602163E08E0138E086E7E702203AE043
:1010F00039B139780173206B01302063E08E0138FB
:10110000E0866E1CE08EB0B120688168890708D443
:10111000FFF7ACF9002EF5D0A0EB0800A842F1D300
:1011200020E0216B09780173206B01302063E08E91
:101130000138E086E6E720462946424600F0AAF953
:1011400008B120206065A06838B9002000902068B0
:10115000C1680091806800900098606D002818BFF9
:10116000012000E00320002184F8501084F8519001
:10117000BDE8F8832DE9F843044690F850000128B3
:1011800004BF0220BDE8F88301201E4615460F4625
:1011900084F85000FFF76AF994F85110814601294C
:1011A00069D10120002F00F0AF80002D00F0AC804D
:1011B000002E00F0A98094F8510004281CBF0520DF
:1011C00084F8510000206065E687E686A563A6875F
:1011D0002763C4E91000A68620680168490603D485
:1011E000016841F0400101606168731EE268B1FA74
:1011F00081F1B3FA83F3DDF8208049095B091943D3
:10120000B2F5006F45D131B137F8021BC1602763D9
:10121000E08E0138E086012608F10105E08E10B964
:10122000E08F002878D02068816889070CD5E18E8E
:10123000012E09D141B1216B002631F8022BC26089
:101240002163E18E0139E1868168C9070AD0E18F07
:1012500041B1A16BC068012621F8020BA163E08FA8
:101260000138E087FFF702F9002DD7D0A0EB090085
:101270004045D3D347E06068B0F5827F07D10220B4
:10128000042941D1A16800293FF48BAF3CE0022042
:101290003AE039B139780173206B01302063E08E78
:1012A0000138E086012608F10105E08E08B9E08FDB
:1012B00090B32068816889070ED5E18E012E0BD18D
:1012C00051B1216B002609780173216B206801312F
:1012D0002163E18E0139E1868168C9070BD0E18F76
:1012E00049B1A16BC06801260870A06B0130A063F2
:1012F000E08F0138E087FFF7B9F8002DD5D0A0EBDB
:1013000009004045D1D30320002184F85010012169
:1013100084F85110BDE8F883204641464A4600F063
:10132000B9F818B1202060650120EDE7A168002020
:101330000029E9D100902168CA680092896800916B
:101340000099E1E7411E0020B0EB116F1CBF0120A6
:101350007047044AF023516003490B7007219060E5
:101360001160704710E000E023ED00E050B310B5CD
:10137000044690F83D0028B9002084F83C0020463F
:1013800000F022F8242084F83D002068C16821F490
:101390000051C160204600F023F92068016921F462
:1013A00090410161416921F02A014161C16841F424
:1013B0000051C16000202021206484F83D1084F891
:1013C0003E1010BD0120704770B586B00026CDE9F3
:1013D0000466CDE90266184C006804F54051884265
:1013E00027D1F24802AD016841F4804101600168F3
:1013F00001F4804101910199016841F0040101600B
:101400000068294600F004000190032005900220A6
:1014100003904FF40070029001982046FEF74AFFB7
:101420004FF48060CDE90366029020462946FEF71E
:1014300041FF06B070BD00BF00080140FEE7FEE7B7
:10144000FEE77047B0B50446406813460A46B0F55B
:10145000827F11D1A068B0F5004F02D0B0F5806F47
:101460000AD12168B0F5806F0D6825F040050D6048
:1014700002D12046012101E02046802100F01CF825
:1014800000280FBF0020606D40F02000606518BF8D
:101490000320B0BD10B513460A468021044600F073
:1014A0000BF800280FBF0020606D40F02000606541
:1014B00018BF032010BD00002DE9FC411E46174651
:1014C0000D468046FEF7D2FF301AC419FEF7CEFF54
:1014D0000646254801370068C0F3CB3060430190D1
:1014E000D8F8000081682940A9420FD1002FF9D017
:1014F000FEF7BCFF801BA0420BD201980199002887
:10150000A1F10101019108BF0446E9E70020BDE80F
:10151000FC81D8E900014268B1F5827F22F0E00247
:1015200042600BD1D8F80810B1F5004F02D0B1F5E8
:10153000806F03D1016821F040010160D8F82810C4
:10154000B1F5005F07D1016821F400510160016825
:1015500041F400510160002088F85000012088F813
:1015600051000320BDE8FC81300000207047FEF7E9
:1015700081BFB0B590B0002401A81421CDE90B447F
:10158000CDE90944FEF720FE4FF450100F904FF4C0
:101590008030022501214FF400320E900D950A9102
:1015A0000892CDE9061006A8FFF76AFA18B1EFF322
:1015B000108072B6FEE74FF480600590CDE90340DD
:1015C0000F20CDE9010501A80221FFF77BF918B131
:1015D000EFF3108072B6FEE710B0B0BD70470000A8
:1015E000B0B50446006804F108030ECB0569194341
:1015F00025F440552A430261C268636941F20C65D3
:10160000AA4319431143C1604169A26921F44071A1
:10161000114341611149884202D0FFF7F1F901E01D
:10162000FFF7F8F919214843D4E900126FF0630479
:101630009200B0FBF2F06422B0FBF2F303FB040073
:10164000322404EB0010B0FBF2F000F0F00202EBE9
:10165000031200F00F0010448860B0BD0038014054
:10166000FEE7000010B5074C00F00F032344044AC6
:10167000B0F1FF3FC8BF83180801187010BD00BF4C
:1016800000E400E014ED00E084B0FEF7FDFEFFF79B
:1016900070FF4648002201684FF4005641F01001E7
:1016A00001600168002701F01001009100990168B4
:1016B00041F020010160016801F0200100910099D2
:1016C000016841F004010160016801F0040100912A
:1016D0000099016841F00801016000684FF4005171
:1016E00000F0080000900098314800F580658246BF
:1016F0002846FEF7B5FE5046032100224FF00308AE
:10170000FEF7AEFE4FF002090124CDE90279CDE9E2
:1017100000646E4628463146FEF7CCFD5046314601
:10172000CDE90279CDE90084FEF7C4FD21480A2302
:101730004FF482710AF51052C0E90877C0E90A73C4
:1017400008234FF40074C0E90021C0E90277C0E922
:101750000477C0E90643FFF72BFB18B1EFF31080C5
:1017600072B6FEE714480C214FF4E1320AF530530B
:10177000C0E90032C0E90277C0E90471C0E9067728
:10178000FFF7F4FD18B1EFF3108072B6FEE7FEF735
:1017900001FF0A4C0A212046FEF7E2FE05342046EE
:1017A000FEF7FEFF0A20FEF775FDF8E7181002406D
:1017B000000C014098000020F000002000000020F4
:1017C00000000000000000000102030406070809F1
:1017D0000000000001020304F817000800000020C8
:1017E00038000000280100083018000838000020E8
:1017F00000070000440100084153555254486579E0
:101800000A000000000000000000000000000000CE
:1018100000000000000000000000000000000000C8
:1018200001000000100000000024F400000000008F
:04000005080000ED02
:00000001FF
